:02000004080AE8
:1000000000000A0874140A080000DD050600030059
:080010000000000000000000E8
:0400180004110A08BD
:10001C0009480A4908B5884205D0094A824202D0EB
:10002C00121A01F025F80748074A0021121A01F0AC
:10003C002AF8064808BD00BF00000020E4130A0897
:10004C006800002068000020F4050020F405002062
:10005C0070B500F0EFFA074B074C1E46E41AA408E3
:10006C000025A54204D056F8253098470135F8E70D
:10007C0070BD00BFA4130A08D4130A0800F012B80C
:10008C0008B500F017F8BDE8084000F095BA00F08C
:10009C0093B90078B0FA80F04009704701230370DF
:1000AC0070470000024B0121188800F0C7BD00BF4B
:1000BC006C00002008B5034C0021208800F0CFFD17
:1000CC00FAE700BF6C00002000F000B808B5024B46
:1000DC001B681B68019308BDB001060808B5024BEC
:1000EC001B689B68019308BDB001060808B5024B5C
:1000FC001B68DB68019308BDB001060808B5024B0C
:10010C001B681B69019308BDB001060808B5024BBA
:10011C001B68DB69019308BDB401060808B5024BE6
:10012C001B681B6A019308BDB401060808B5024B95
:10013C001B685B68019308BD9C01060808B5024B5F
:10014C001B685B69019308BD9C01060808B5024B4E
:10015C001B681B6B019308BDD001060808B5024B48
:10016C001B689B69019308BDC401060808B5024BC6
:10017C001B685B6A019308BDC401060808B5024BF5
:10018C001B689B6A019308BDC401060808B5024BA5
:10019C001B68DB6A019308BDC401060808B5024B55
:1001AC001B681B6B019308BDC401060808B5024B04
:1001BC001B685B6B019308BDC401060808B5024BB4
:1001CC001B689B6B019308BDC401060808B5024B64
:1001DC001B681B6C019308BDC401060808B5024BD3
:1001EC001B681B6E019308BDAC01060808B5024BD9
:1001FC001B685B6E019308BDAC01060808B5024B89
:10020C001B689B6E019308BDAC01060808B5024B38
:10021C001B68DB6E019308BDAC01060808B5024BE8
:10022C001B681B6F019308BDAC01060808B5024B97
:10023C001B685B6F019308BDAC01060808B5034B46
:10024C001B68D3F88030019308BD0000AC01060890
:10025C0008B5024B1B681B68019308BDD801060842
:10026C0008B5024B1B681B69019308BDD801060831
:10027C0008B5024B1B685B69019308BDD8010608E1
:10028C0008B5024B1B689B69019308BDD801060891
:10029C0008B5024B1B68DB69019308BDD801060841
:1002AC0008B5024B1B681B6A019308BDD8010608F0
:1002BC0008B5024B1B689B6C019308BDC001060876
:1002CC0008B5024B1B685B68019308BDA4010608C6
:1002DC0008B5034B1B68D3F89030019308BD0000A0
:1002EC00A401060808B5034B1B68D3F89C30019396
:1002FC0008BD0000A401060808B5024B1B685B682A
:10030C00019308BDC801060808B5024B1B689B6821
:10031C00019308BDC801060808B5024B1B68DB68D1
:10032C00019308BDC801060808B5024B1B681B6980
:10033C00019308BDC801060808B5024B1B685B6930
:10034C00019308BDC801060808B5024B1B689B69E0
:10035C00019308BDC801060808B5024B1B68DB6990
:10036C00019308BDC801060808B5024B1B681B6A3F
:10037C00019308BDC801060808B5024B1B681B6B2E
:10038C00019308BDC801060808B5024B1B685B6BDE
:10039C00019308BDC801060808B5024B1B68DB6B4E
:1003AC00019308BDCC01060808B5024B1B681B68FD
:1003BC00019308BDA001060808B5024B1B685B68D9
:1003CC00019308BDA0010608704710B50446102122
:1003DC0000F0E4FC204610BD70B504460E46074BF9
:1003EC000025036040F80C5FFFF7B0FE3046267125
:1003FC00FFF78CFEA560204670BD00BF20110A08D7
:10040C000079FFF78BBE10B50446006818B1FFF7F2
:10041C00D3FF0023236010BD10B50446FFF7F3FF94
:10042C00204610BD4FF6FF7310B5084C002020601D
:10043C00A080A07120816381FFF742FF2046BDE8B8
:10044C001040034A034900F09BBC00BF7000002021
:10045C006800002025040A08F8B506460D468F18DA
:10046C000024BD420CD0336815F8011B9B68304644
:10047C009847002801DB0444F3E7002C08BF04462E
:10048C002046F8BD70B505460C46084649B100F04B
:10049C002BFE2B68024621462846BDE87040DB68DF
:1004AC00184770BD03689B681847012A98BF0A2239
:1004BC0030B50B468BB000218DF824100DF12304C0
:1004CC00B3FBF2F505FB1233DBB2092B94BF3033CF
:1004DC003733DBB2214604F801392B46002DEFD11E
:1004EC00FFF7D0FF0BB030BD00231A461946406809
:1004FC00FFF722BF014A024B1A6070479E110A088F
:10050C007C000020024B1A68024B1A60704700BF37
:10051C00000000208000002010B58368044613B151
:10052C00032201469847204610BD10B50446FFF73C
:10053C00F3FF204610BD0000034800238360034AEC
:10054C00034900F01DBC00BF84000020680000209F
:10055C0037050A0808B5144B33B100F067F9036886
:10056C001B699847002816DC104B33B100F01CFABD
:10057C0003681B699847002810DC0D4B0BB1AFF3D7
:10058C0000800C4B7BB100F08DF903681B69984718
:10059C00002806DC08BDAFF30080E5E7AFF3008070
:1005AC00EBE7AFF3008008BD000000000000000086
:1005BC00000000000000000008B5FFF7CBFFFFF7BC
:1005CC00BDFD014B186008BD1C0500200248034A04
:1005DC000349121A00F04CBD004002400440024096
:1005EC00E0130A0807B5002300931A466FF0770151
:1005FC00FFF778FE03B05DF804FB000007B54388F5
:10060C000A2B08D0502B09D1094B1B683BB103B006
:10061C005DF804EB1847FFF7E5FF06E000230093B5
:10062C001A466FF07701FFF75DFE03B05DF804FB2F
:10063C009400002038B5104C104D2368AB42104B81
:10064C000CBF012200221A7002D0FFF7BFFF2560F9
:10065C00FFF76CFD044600F01FFD0A4B13B120465A
:10066C00AFF3008000210748FFF796FEBDE8384045
:10067C0000210548FFF72CBE004002401E1C279AA3
:10068C00980000200000000009060A08704710B509
:10069C000446182100F082FB204610BDF8B50F4629
:1006AC0000F10806051D002416F8011D0A22384623
:1006BC00FFF7FBFEAE42044407D0002CF4D02E21F1
:1006CC003846FFF7EFFE0444EEE72046F8BD000085
:1006DC0010B50446044B112240F8043B002100F0F5
:1006EC00D2FC204610BD00BF40120A080346074A40
:1006FC0010B543F8042B01F1100251F8044B914250
:10070C0043F8044BF9D10A781A7010BD40120A084C
:10071C00024A4160026004220275704740120A08C6
:10072C0010B59DF8084044EA032343EA024242EA2A
:10073C00016104234160037510BD000037B5044D01
:10074C0005609DF818500095FFF7EAFF03B030BD27
:10075C0040120A0841747047704708B50021007CAC
:10076C00FFF78EFD30EA200028BF4FF0FF3008BDA8
:10077C0008B50121007CFFF783FD30EA200028BF7B
:10078C004FF0FF3008BD08B5007CFFF771FD20EA83
:10079C00E07008BD08B5007CFFF762FD20EAE07050
:1007AC0008BD007CFFF77CBD10B50446142100F099
:1007BC00F5FA204610BD38B50446007C0D46FFF70F
:1007CC0057FD002801DC607C28B12946207CFFF70E
:1007DC005FFD20EAE07038BD10B50446002363606D
:1007EC004FF47A73A360054B0846236001232174F0
:1007FC0063741146FFF72CFD204610BD54120A08F5
:10080C0010B504461422002100F03DFC054B204697
:10081C006360054BE36040F2011323818123238243
:10082C0010BD00BF21010020A000002030B50E4DEE
:10083C0087B001A8FFF7E4FF296811F0010410D17B
:10084C002846FFF726FC60B101AA21460748FFF7AE
:10085C00C3FF2846FFF722FC054A0649034800F06F
:10086C008FFA024807B030BD9C0000202402002003
:10087C006800002065070A0810B504461422002100
:10088C0000F001FC054B20466360054BE36040F231
:10089C00011323818123238210BD00BFD4020020C9
:1008AC003C02002010B50E4C86B001A8FFF7E4FF07
:1008BC002368DB0710D42046FFF7EBFB60B101AADD
:1008CC0001210848FFF788FF2046FFF7E7FB064A9F
:1008DC000649044800F054FA024806B010BD00BFA7
:1008EC0038020020C00200206800002065070A08BA
:1008FC0070474174704708B5007CFFF767FC20EA2D
:10090C00E07008BD08B5007CFFF738FC20EAE07009
:10091C0008BD08B5007CFFF741FC30EA200028BF79
:10092C004FF0FF3008BD08B5007CFFF72FFC30EA14
:10093C00200028BF4FF0FF3008BD007CFFF736BC0D
:10094C0010B50446142100F029FA204610BD70B5EC
:10095C00457C04460E4625B9007CFFF737FC002881
:10096C0005DD3146207CBDE87040FFF7FFBB284613
:10097C0070BD000010B504460846114600226260A6
:10098C004FF47A72A260054A2074226001226274CC
:10099C001A46FFF7E3FB204610BD00BF84120A087D
:1009AC00007CFFF70BBC000038B50C4D296811F02A
:1009BC00010411D12846FFF76CFB68B1084A2146A7
:1009CC00084B0948FFF7D6FF2846FFF767FB074A95
:1009DC000749054800F0D4F9034838BD70040020DD
:1009EC0074040020EC030020D803002068000020D1
:1009FC00FD080A087047F8B5064615460C468F18D0
:100A0C00BC4206D0336814F8011B9B6830469847EB
:100A1C00F6E72846F8BD0022007CFFF7DFBB00217B
:100A2C00007CFFF7E3BB0021007CFFF7E7BB002154
:100A3C00007CFFF7EBBB0021007CFFF7EFBB10B590
:100A4C000446142100F0AAF9204610BD10B5044646
:100A5C00002363604FF47A73A360044B217408463F
:100A6C0023601146FFF7EAFB204610BDB4120A08BA
:100A7C000021007CFFF7DABB002211464068FFF72B
:100A8C0053BCF0B5164689B011220F46044600211E
:100A9C0003A800F0F8FA304600F026FB002500957C
:100AAC0081B27B6803AA3046FFF702FC20B12946CD
:100ABC002046FFF72DFE03E003A92046FFF716FEA4
:100ACC00204609B0F0BD002211464068FFF74CBC2F
:100ADC00002211464068FFF757BC00224068FFF720
:100AEC004BBC002281F001014068FFF735BC0023AC
:100AFC001A4619464068FFF727BC00221146406889
:100B0C00FFF702BC002202214068FFF705BC00235E
:100B1C001A464068FFF7F0BB024B04225A60024AA7
:100B2C001A607047F8040020DC120A0800231A46E9
:100B3C004068FFF7E1BB002202214068FFF7ECBBE5
:100B4C00002211464068FFF7DFBB002211464068C7
:100B5C00FFF7EABB00231A4619464068FFF7ECBBC7
:100B6C0000231A4619464068FFF7EEBB002281F0BD
:100B7C0001014068FFF7F0BB00224068FFF7FCBBA7
:100B8C00002211464068FFF7FFBB00221146406867
:100B9C00FFF7EABB70B516468EB0044608A8FFF7FF
:100BAC0097FD1122002103A800F06DFA304600F0E9
:100BBC009BFA00250A4B009581B25B6803AA30466C
:100BCC00FFF776FB20B129462046FFF7A1FD03E095
:100BDC0003A92046FFF78AFD20460EB070BD00BF6A
:100BEC00F8040020024B034A1A6000225A60704736
:100BFC000005002010130A0810B5044600F048F850
:100C0C00FFF7FEFB28B1A4F10D03022B01D8002045
:100C1C0010BD00F08FF8FFF72BFF08B1012CF6D9AF
:100C2C00FFF7C2FEFFF7BCFE18B1A4F11203012BB3
:100C3C00EDD9172C8CBF0020012010BD172838B51A
:100C4C0004460D460AD8FF2908D0FFF7D5FF28B176
:100C5C0029462046BDE83840FFF740BA38BD38B5C4
:100C6C0004460D46FFF742FAFF2810D0062804D898
:100C7C004D2323FA00F0C30709D42046FFF7BCFF2D
:100C8C0028B129462046BDE83840FFF737BA38BDB1
:100C9C0038B50B4D296811F001040FD12846FFF728
:100CAC00F8F958B121460748FFF796FB2846FFF79D
:100CBC00F5F9054A0549034800F062F8014838BDCA
:100CCC00180500200805002068000020D5030A083C
:100CDC0013B5084C00231A46194600932046FFF71B
:100CEC002DFD2046044A054902B0BDE8104000F035
:100CFC0047B800BF200500206800002099060A08AC
:100D0C0070B5044614252A46094E002100F0BBF9A3
:100D1C00258020253146A5602561284600F040F845
:100D2C0031466060284600F03BF8E060204670BD1C
:100D3C003C130A0830B50E4D87B0296811F0010438
:100D4C0013D12846FFF7A5F978B101A8FFF7D8FF12
:100D5C0001AA21460748FFF779FE2846FFF79EF9BE
:100D6C00054A0649034800F00BF8024807B030BDAD
:100D7C00380500203C05002068000020010A0A0804
:100D8C000B460146184600F065B90000024B186886
:100D9C00BFF35F8F704700BF50050020FFF777B996
:100DAC0000F000B810B5002814BF044601242046FA
:100DBC00FFF7FAFA20B9FFF7E9FF08B18047F6E729
:100DCC0010BD0000184B1A68D1075CBF01221A60D5
:100DDC00164B1A68D2075CBF01221A60144B1A68B2
:100DEC00D0075CBF01221A60124B1A68D1075CBF96
:100DFC0001221A60104B1A68D2075CBF01221A60DC
:100E0C000E4B1A68D0075CBF01221A600C4B1A6893
:100E1C00D1075CBF01221A600A4B1A68D2075CBF6B
:100E2C0001221A60704700BF700500206C0500207D
:100E3C006805002064050020600500205C0500208A
:100E4C005805002054050020244B1A68D0075CBFBD
:100E5C0001221A60224B1A68D1075CBF01221A606A
:100E6C00204B1A68D2075CBF01221A601E4B1A680D
:100E7C00D0075CBF01221A601C4B1A68D1075CBFFB
:100E8C0001221A601A4B1A68D2075CBF01221A6041
:100E9C00184B1A68D0075CBF01221A60164B1A68EF
:100EAC00D1075CBF01221A60144B1A68D2075CBFD1
:100EBC0001221A60124B1A68D0075CBF01221A601B
:100ECC00104B1A68D1075CBF01221A600E4B1A68CE
:100EDC00D2075CBF01221A60704700BFA00500203A
:100EEC009C0500209805002094050020900500200A
:100EFC008C0500208805002084050020800500203A
:100F0C007C0500207805002074050020244B1A680D
:100F1C00D0075CBF01221A60224B1A68D1075CBF54
:100F2C0001221A60204B1A68D2075CBF01221A609A
:100F3C001E4B1A68D0075CBF01221A601C4B1A6842
:100F4C00D1075CBF01221A601A4B1A68D2075CBF2A
:100F5C0001221A60184B1A68D0075CBF01221A6074
:100F6C00164B1A68D1075CBF01221A60144B1A6821
:100F7C00D2075CBF01221A60124B1A68D0075CBF03
:100F8C0001221A60104B1A68D1075CBF01221A604B
:100F9C000E4B1A68D2075CBF01221A60704700BF63
:100FAC00D0050020CC050020C8050020C405002079
:100FBC00C0050020BC050020B8050020B4050020A9
:100FCC00B0050020AC050020A8050020A4050020D9
:100FDC00184B1A68D1075CBF01221A60164B1A68AD
:100FEC00D2075CBF01221A60144B1A68D0075CBF91
:100FFC0001221A60124B1A68D1075CBF01221A60D9
:10100C00104B1A68D2075CBF01221A600E4B1A688B
:10101C00D0075CBF01221A600C4B1A68D1075CBF69
:10102C0001221A600A4B1A68D2075CBF01221A60AF
:10103C00704700BFF0050020EC050020E8050020FB
:10104C00E4050020E0050020DC050020D805002088
:10105C00D405002010B5054C13462CB10A460146A8
:10106C000220AFF3008010BD204610BD0000000030
:10107C0010B5431E0A44914204D011F8014B03F8F9
:10108C00014FF8E710BD03460244934202D003F827
:10109C00011BFAE77047000038B5124B05461C6877
:1010AC00A36BD3B91820FFF77FF943F20E33A0637B
:1010BC0003804AF6CD33438041F2342383804EF2D1
:1010CC006D63C3804DF6EC630381052343810B23D1
:1010DC00838101220023C0E90423A36B00221D613C
:1010EC005A6138BD64000020034613F8012B002A16
:1010FC00FBD1181A013870471D000A085D000A0858
:10110C0089000A088D000A08000000000000000099
:10111C0000000000D5030A08D7030A086261756451
:10112C000053657269616C00555342536572696175
:10113C006C31007479706500706172616D00636D63
:10114C006400696400686E64007374726D00666993
:10115C006C74006C766C0061646448616E646C65E0
:10116C00720072656D6F766548616E646C657200B5
:10117C00656E756D48616E646C657273004A534F91
:10118C004E53747265616D4C6F6748616E646C652B
:10119C00720061707000253031307520005D2000C8
:1011AC002564002C200028293A2000205B00636F66
:1011BC006465203D200025690064657461696C7369
:1011CC00203D20000D0A0066006C6E00666E006308
:1011DC006F64650064657461696C006E6F6E6500A8
:1011EC00747261636500696E666F007761726E0080
:1011FC006572726F720070616E696300616C6C0075
:10120C005A00252B3033643A253032750025592D80
:10121C00256D2D25645425483A254D3A2553257ABC
:10122C000061736374696D650000000000000000CC
:10123C0000000000A9060A0899060A089B060A087D
:10124C00000000000000000065070A08B5070A0846
:10125C00C3070A0865040A08A1070A0867070A08F1
:10126C007D070A08AF070A0893070A0861070A08EE
:10127C000000000000000000FD080A084D090A08E3
:10128C005B090A0865040A0811090A0833090A08E7
:10129C001F090A0847090A08FF080A0803090A086F
:1012AC000000000000000000010A0A084B0A0A08AE
:1012BC00230A0A08030A0A082B0A0A08330A0A082E
:1012CC003B0A0A08430A0A0800000000000000005C
:1012DC001B0B0A08110B0A08070B0A08850A0A08D7
:1012EC00F5040A08FB0A0A08EF0A0A08E70A0A08C2
:1012FC00DD0A0A08D30A0A088F0A0A08000000004F
:10130C0000000000390B0A08430B0A084D0B0A08B1
:10131C00570B0A08610B0A086D0B0A08790B0A08AF
:10132C00850B0A088D0B0A08970B0A08A10B0A08F3
:10133C0000000000000000000000000000000000A1
:10134C000000000000000000000000000000000091
:10135C000000000000000000000000000000000081
:10136C000000000000000000000000000000000071
:10137C000000000000000000000000000000000061
:10138C000000000000000000000000000000000051
:10139C000000000043000000D5000A0831040A08D0
:1013AC0001050A0811050A0845050A08250B0A0853
:1013BC00F10B0A08DD0C0A08D10D0A08550E0A08B3
:1013CC00190F0A08DD0F0A080000000000000000D9
:0413DC00000000000D
:0413E0000000000009
:1013E4002D120A080000000040130A0860130A08BE
:1013F40080130A0800000000000000000000000044
:1014040000000000A0130A08000000000000000013
:1014140000000000000000000000000000000000C8
:1014240000000000000000000000000000000000B8
:1014340000000000000000000000000000000000A8
:0814440000000000040000207C
:10144C00FFFFFFFF00000102030405060708090A5D
:10145C000B0C0D0E0F101112131415161718191A58
:08146C001B1C1D1E1F2028009F
:041474007856341260
:04000005080A001CC9
:00000001FF
