:02000004080AE8
:1000000000000A08FC140A080000060006000501AA
:080010000402DE0500000000FF
:0400180088110A0839
:10001C0009480A4908B5884205D0094A824202D0EB
:10002C00121A01F067F80748074A0021121A01F06A
:10003C006CF8064808BD00BF0000002064140A08D4
:10004C007000002070000020F8050020F80500204A
:10005C0070B500F031FB074B074C1E46E41AA408A0
:10006C000025A54204D056F8253098470135F8E70D
:10007C0070BD00BF28140A0858140A0800F012B802
:10008C0008B500F021F8BDE8084000F0D7BA00F040
:10009C00C5B90078B0FA80F04009704701230370AD
:1000AC007047000008B5064B0121188800F008FEC7
:1000BC00044B01211888BDE8084000F001BE00BFC8
:1000CC00000000200400002038B50E4D0E4C28888E
:1000DC00012100F006FE0121208800F002FE4FF401
:1000EC007A7000F059FA2888002100F0FAFD208877
:1000FC00002100F0F6FDBDE838404FF47A7000F0B6
:10010C004BBA00BF000000200400002000F000B833
:10011C0008B5024B1B681B68019308BDB0010608AB
:10012C0008B5024B1B689B68019308BDB00106081B
:10013C0008B5024B1B68DB68019308BDB0010608CB
:10014C0008B5024B1B681B69019308BDB00106087A
:10015C0008B5024B1B68DB69019308BDB4010608A6
:10016C0008B5024B1B681B6A019308BDB401060855
:10017C0008B5024B1B685B68019308BD9C0106081F
:10018C0008B5024B1B685B69019308BD9C0106080E
:10019C0008B5024B1B685B6C019308BDD0010608C7
:1001AC0008B5024B1B689B6C019308BDD001060877
:1001BC0008B5024B1B689B69019308BDC401060876
:1001CC0008B5024B1B685B6A019308BDC4010608A5
:1001DC0008B5024B1B689B6A019308BDC401060855
:1001EC0008B5024B1B68DB6A019308BDC401060805
:1001FC0008B5024B1B681B6B019308BDC4010608B4
:10020C0008B5024B1B685B6B019308BDC401060863
:10021C0008B5024B1B689B6B019308BDC401060813
:10022C0008B5024B1B681B6C019308BDC401060882
:10023C0008B5024B1B681B6E019308BDAC01060888
:10024C0008B5024B1B685B6E019308BDAC01060838
:10025C0008B5024B1B689B6E019308BDAC010608E8
:10026C0008B5024B1B68DB6E019308BDAC01060898
:10027C0008B5024B1B681B6F019308BDAC01060847
:10028C0008B5024B1B685B6F019308BDAC010608F7
:10029C0008B5034B1B68D3F88030019308BD0000F0
:1002AC00AC01060808B5024B1B681B68019308BD1E
:1002BC00D801060808B5024B1B681B69019308BDE1
:1002CC00D801060808B5024B1B685B69019308BD91
:1002DC00D801060808B5024B1B689B69019308BD41
:1002EC00D801060808B5024B1B68DB69019308BDF1
:1002FC00D801060808B5024B1B681B6A019308BDA0
:10030C00D801060808B5024B1B689B6C019308BD0D
:10031C00C001060808B5024B1B685B68019308BD59
:10032C00A401060808B5024B1B685B69019308BD64
:10033C00A401060808B5034B1B68D3F89030019351
:10034C0008BD0000A401060808B5034B1B68D3F8D0
:10035C009C30019308BD0000A401060808B5024BAF
:10036C001B685B68019308BDC801060808B5024B01
:10037C001B689B68019308BDC801060808B5024BB1
:10038C001B68DB68019308BDC801060808B5024B61
:10039C001B681B69019308BDC801060808B5024B10
:1003AC001B685B69019308BDC801060808B5024BC0
:1003BC001B689B69019308BDC801060808B5024B70
:1003CC001B68DB69019308BDC801060808B5024B20
:1003DC001B681B6A019308BDC801060808B5024BCF
:1003EC001B681B6B019308BDC801060808B5024BBE
:1003FC001B685B6B019308BDC801060808B5024B6E
:10040C001B68DB6B019308BDCC01060808B5024BD9
:10041C001B681B68019308BDA001060808B5024BB8
:10042C001B685B68019308BDA001060810B5044B5E
:10043C0004460360C06808B1FFF7B2FE204610BD49
:10044C00A4110A0810B50446FFF7F0FF204610214E
:10045C0000F0E6FC204610BD70B504460E46074B76
:10046C000025036040F80C5FFFF792FE30462671C2
:10047C00FFF76EFEA560204670BD00BFA4110A08F0
:10048C000079FFF76DBE10B50446006818B1FFF790
:10049C00C5FF0023236010BD10B50446FFF7F3FF22
:1004AC00204610BD4FF6FF7310B5084C002020609D
:1004BC00A080A07120816381FFF72CFF2046BDE84E
:1004CC001040034A034900F09DBC00BF740000209B
:1004DC0070000020A5040A08F8B506460D468F18D2
:1004EC000024BD420CD0336815F8011B9B683046C4
:1004FC009847002801DB0444F3E7002C08BF0446AE
:10050C002046F8BD70B505460C46084649B100F0CA
:10051C002DFE2B68024621462846BDE87040DB685C
:10052C00184770BD03689B681847012A98BF0A22B8
:10053C0030B50B468BB000218DF824100DF123043F
:10054C00B3FBF2F505FB1233DBB2092B94BF30334E
:10055C003733DBB2214604F801392B46002DEFD19D
:10056C00FFF7D0FF0BB030BD00231A461946406888
:10057C00FFF714BF014A024B1A60704722120A0897
:10058C0080000020024B1A68024B1A60704700BFB3
:10059C0008000020840000200021FFF7C3BE10B526
:1005AC008368044613B1032201469847204610BDC8
:1005BC0010B50446FFF7F3FF204610BD0348002397
:1005CC008360034A034900F01DBC00BF8800002073
:1005DC0070000020BD050A0808B5144B33B100F0BB
:1005EC0067F903681B699847002816DC104B33B178
:1005FC0000F01CFA03681B699847002810DC0D4BAF
:10060C000BB1AFF300800C4B7BB100F08DF903689C
:10061C001B699847002806DC08BDAFF30080E5E7AE
:10062C00AFF30080EBE7AFF3008008BD00000000E3
:10063C0000000000000000000000000008B5FFF7FB
:10064C00CBFFFFF79DFD014B186008BD2005002076
:10065C000248034A0349121A00F04CBD0040024004
:10066C000440024060140A0807B5002300931A46A0
:10067C006FF07701FFF768FE03B05DF804FB000034
:10068C0007B543880A2B08D0502B09D1094B1B689E
:10069C003BB103B05DF804EB1847FFF7E5FF06E04C
:1006AC00002300931A466FF07701FFF74DFE03B05D
:1006BC005DF804FB9800002038B5104C104D2368F1
:1006CC00AB42104B0CBF012200221A7002D0FFF774
:1006DC00BFFF2560FFF74CFD044600F01FFD0A4BE1
:1006EC0013B12046AFF3008000210748FFF786FEC8
:1006FC00BDE8384000210548FFF71CBE0040024011
:10070C001E1C279A9C000020000000008D060A0881
:10071C00704710B50446182100F082FB204610BD2E
:10072C00F8B50F4600F10806051D002416F8011D4A
:10073C000A223846FFF7F9FEAE42044407D0002CDB
:10074C00F4D02E213846FFF7EDFE0444EEE72046A8
:10075C00F8BD000010B50446044B112240F8043BD0
:10076C00002100F0D2FC204610BD00BFC4120A08C4
:10077C000346074A10B543F8042B01F1100251F857
:10078C00044B914243F8044BF9D10A781A7010BD0E
:10079C00C4120A08024A41600260042202757047C2
:1007AC00C4120A0810B59DF8084044EA032343EA32
:1007BC00024242EA016104234160037510BD00004E
:1007CC0037B5044D05609DF818500095FFF7EAFF0A
:1007DC0003B030BDC4120A0841747047704708B5A5
:1007EC000021007CFFF776FD30EA200028BF4FF097
:1007FC00FF3008BD08B50121007CFFF76BFD30EA26
:10080C00200028BF4FF0FF3008BD08B5007CFFF773
:10081C0059FD20EAE07008BD08B5007CFFF74AFDE1
:10082C0020EAE07008BD007CFFF764BD10B50446FB
:10083C00142100F0F5FA204610BD38B50446007CB2
:10084C000D46FFF73FFD002801DC607C28B12946EE
:10085C00207CFFF747FD20EAE07038BD10B5044658
:10086C00002363604FF47A73A360054B0846236042
:10087C000123217463741146FFF714FD204610BD4B
:10088C00D8120A0810B504461422002100F03DFCD1
:10089C00054B20466360054BE36040F20113238156
:1008AC008123238210BD00BF25010020A40000205D
:1008BC0030B50E4D87B001A8FFF7E4FF296811F0A1
:1008CC00010410D12846FFF7E4FB60B101AA2146D0
:1008DC000748FFF7C3FF2846FFF7E0FB054A064928
:1008EC00034800F08FFA024807B030BDA00000208A
:1008FC002802002070000020E9070A0810B5044601
:10090C001422002100F001FC054B20466360054BCE
:10091C00E36040F2011323818123238210BD00BFC9
:10092C00D80200204002002010B50E4C86B001A861
:10093C00FFF7E4FF2368DB0710D42046FFF7A9FB81
:10094C0060B101AA01210848FFF788FF2046FFF794
:10095C00A5FB064A0649044800F054FA024806B0C2
:10096C0010BD00BF3C020020C4020020700000201B
:10097C00E9070A0870474174704708B5007CFFF717
:10098C004FFC20EAE07008BD08B5007CFFF720FCA6
:10099C0020EAE07008BD08B5007CFFF729FC30EABE
:1009AC00200028BF4FF0FF3008BD08B5007CFFF7D2
:1009BC0017FC30EA200028BF4FF0FF3008BD007C48
:1009CC00FFF71EBC10B50446142100F029FA20468E
:1009DC0010BD70B5457C04460E4625B9007CFFF76A
:1009EC001FFC002805DD3146207CBDE87040FFF778
:1009FC00E7BB284670BD000010B5044608461146FA
:100A0C00002262604FF47A72A260054A2074226060
:100A1C00012262741A46FFF7CBFB204610BD00BFC3
:100A2C0008130A08007CFFF7F3BB000038B50C4D27
:100A3C00296811F0010411D12846FFF72AFB68B18F
:100A4C00084A2146084B0948FFF7D6FF2846FFF70E
:100A5C0025FB074A0749054800F0D4F9034838BD7F
:100A6C007404002078040020F0030020DC03002034
:100A7C007000002081090A087047F8B50646154633
:100A8C000C468F18BC4206D0336814F8011B9B68C7
:100A9C0030469847F6E72846F8BD0022007CFFF761
:100AAC00C7BB0021007CFFF7CBBB0021007CFFF70C
:100ABC00CFBB0021007CFFF7D3BB0021007CFFF7EC
:100ACC00D7BB10B50446142100F0AAF9204610BD7E
:100ADC0010B50446002363604FF47A73A360044B93
:100AEC002174084623601146FFF7D2FB204610BD47
:100AFC0038130A080021007CFFF7C2BB0022114604
:100B0C004068FFF743BCF0B5164689B011220F467A
:100B1C000446002103A800F0F8FA304600F026FB4A
:100B2C000025009581B27B6803AA3046FFF7EAFBEB
:100B3C0020B129462046FFF72DFE03E003A92046ED
:100B4C00FFF716FE204609B0F0BD002211464068A2
:100B5C00FFF73CBC002211464068FFF747BC00225F
:100B6C004068FFF73BBC002281F001014068FFF7B1
:100B7C0025BC00231A4619464068FFF717BC002213
:100B8C0011464068FFF7F2BB002202214068FFF7D4
:100B9C00F5BB00231A464068FFF7E0BB024B04226A
:100BAC005A60024A1A607047FC04002060130A085D
:100BBC0000231A464068FFF7D1BB0022022140688F
:100BCC00FFF7DCBB002211464068FFF7CFBB0022C9
:100BDC0011464068FFF7DABB00231A4619464068F5
:100BEC00FFF7DCBB00231A4619464068FFF7DEBB53
:100BFC00002281F001014068FFF7E0BB0022406851
:100C0C00FFF7ECBB002211464068FFF7EFBB002258
:100C1C0011464068FFF7DABB70B516468EB0044635
:100C2C0008A8FFF797FD1122002103A800F06DFA28
:100C3C00304600F09BFA00250A4B009581B25B68A8
:100C4C0003AA3046FFF75EFB20B129462046FFF78A
:100C5C00A1FD03E003A92046FFF78AFD20460EB054
:100C6C0070BD00BFFC040020024B034A1A60002236
:100C7C005A6070470405002094130A0810B5044606
:100C8C0000F048F8FFF7FCFB28B1A4F10D03022B90
:100C9C0001D8002010BD00F08FF8FFF72BFF08B132
:100CAC00012CF6D9FFF7C2FEFFF7BCFE18B1A4F178
:100CBC001203012BEDD9172C8CBF0020012010BD85
:100CCC00172838B504460D460AD8FF2908D0FFF777
:100CDC00D5FF28B129462046BDE83840FFF720BA99
:100CEC0038BD38B504460D46FFF722FAFF2810D060
:100CFC00062804D84D2323FA00F0C30709D4204654
:100D0C00FFF7BCFF28B129462046BDE83840FFF765
:100D1C0017BA38BD38B50B4D296811F001040FD145
:100D2C002846FFF7B6F958B121460748FFF794FB60
:100D3C002846FFF7B3F9054A0549034800F062F865
:100D4C00014838BD1C0500200C0500207000002057
:100D5C0039040A0813B5084C00231A4619460093A7
:100D6C002046FFF72DFD2046044A054902B0BDE898
:100D7C00104000F047B800BF240500207000002090
:100D8C001D070A0870B5044614252A46094E002191
:100D9C0000F0BBF9258020253146A5602561284649
:100DAC0000F040F831466060284600F03BF8E06007
:100DBC00204670BDC0130A0830B50E4D87B02968A7
:100DCC0011F0010413D12846FFF763F978B101A89B
:100DDC00FFF7D8FF01AA21460748FFF779FE2846FE
:100DEC00FFF75CF9054A0649034800F00BF8024886
:100DFC0007B030BD3C0500204005002070000020ED
:100E0C00850A0A080B460146184600F065B9000031
:100E1C00024B1868BFF35F8F704700BF540500206A
:100E2C00FFF735B900F000B810B5002814BF044620
:100E3C0001242046FFF7EAFA20B9FFF7E9FF08B1D1
:100E4C008047F6E710BD0000184B1A68D1075CBF4D
:100E5C0001221A60164B1A68D2075CBF01221A6075
:100E6C00144B1A68D0075CBF01221A60124B1A6827
:100E7C00D1075CBF01221A60104B1A68D2075CBF05
:100E8C0001221A600E4B1A68D0075CBF01221A604F
:100E9C000C4B1A68D1075CBF01221A600A4B1A6806
:100EAC00D2075CBF01221A60704700BF7405002096
:100EBC00700500206C0500206805002064050020EA
:100ECC00600500205C05002058050020244B1A68A2
:100EDC00D0075CBF01221A60224B1A68D1075CBF95
:100EEC0001221A60204B1A68D2075CBF01221A60DB
:100EFC001E4B1A68D0075CBF01221A601C4B1A6883
:100F0C00D1075CBF01221A601A4B1A68D2075CBF6A
:100F1C0001221A60184B1A68D0075CBF01221A60B4
:100F2C00164B1A68D1075CBF01221A60144B1A6861
:100F3C00D2075CBF01221A60124B1A68D0075CBF43
:100F4C0001221A60104B1A68D1075CBF01221A608B
:100F5C000E4B1A68D2075CBF01221A60704700BFA3
:100F6C00A4050020A00500209C0500209805002069
:100F7C0094050020900500208C0500208805002099
:100F8C0084050020800500207C05002078050020C9
:100F9C00244B1A68D0075CBF01221A60224B1A68D6
:100FAC00D1075CBF01221A60204B1A68D2075CBFC4
:100FBC0001221A601E4B1A68D0075CBF01221A600E
:100FCC001C4B1A68D1075CBF01221A601A4B1A68B5
:100FDC00D2075CBF01221A60184B1A68D0075CBF9D
:100FEC0001221A60164B1A68D1075CBF01221A60E5
:100FFC00144B1A68D2075CBF01221A60124B1A6894
:10100C00D0075CBF01221A60104B1A68D1075CBF75
:10101C0001221A600E4B1A68D2075CBF01221A60BB
:10102C00704700BFD4050020D0050020CC0500205F
:10103C00C8050020C4050020C0050020BC05002008
:10104C00B8050020B4050020B0050020AC05002038
:10105C00A8050020184B1A68D1075CBF01221A6042
:10106C00164B1A68D2075CBF01221A60144B1A681F
:10107C00D0075CBF01221A60124B1A68D1075CBF03
:10108C0001221A60104B1A68D2075CBF01221A6049
:10109C000E4B1A68D0075CBF01221A600C4B1A6801
:1010AC00D1075CBF01221A600A4B1A68D2075CBFD9
:1010BC0001221A60704700BFF4050020F0050020E3
:1010CC00EC050020E8050020E4050020E0050020E8
:1010DC00DC050020D805002010B5054C13462CB1BA
:1010EC000A4601460220AFF3008010BD204610BD19
:1010FC000000000010B5431E0A44914204D011F8C0
:10110C00014B03F8014FF8E710BD0346024493422C
:10111C0002D003F8011BFAE77047000038B5124BF8
:10112C0005461C68A36BD3B91820FFF76FF943F27F
:10113C000E33A06303804AF6CD33438041F234234F
:10114C0083804EF26D63C3804DF6EC6303810523FF
:10115C0043810B23838101220023C0E90423A36B69
:10116C0000221D615A6138BD6C000020034613F843
:10117C00012B002AFBD1181A013870471D000A08F0
:10118C005D000A0889000A088D000A0800000000AA
:10119C00000000000000000039040A0851040A088D
:1011AC00626175640053657269616C0055534253FA
:1011BC00657269616C31007479706500706172617F
:1011CC006D00636D6400696400686E640073747212
:1011DC006D0066696C74006C766C006164644861C7
:1011EC006E646C65720072656D6F766548616E64D5
:1011FC006C657200656E756D48616E646C657273BA
:10120C00004A534F4E53747265616D4C6F67486161
:10121C006E646C6572006170700025303130752021
:10122C00005D20002564002C200028293A20002095
:10123C005B00636F6465203D200025690064657464
:10124C0061696C73203D20000D0A0066006C6E0015
:10125C00666E00636F64650064657461696C006E32
:10126C006F6E6500747261636500696E666F0077FE
:10127C0061726E006572726F720070616E696300EC
:10128C00616C6C005A00252B3033643A2530327572
:10129C000025592D256D2D25645425483A254D3AA8
:1012AC002553257A0061736374696D650000000035
:1012BC0000000000000000002D070A081D070A08A6
:1012CC001F070A080000000000000000E9070A08D8
:1012DC0039080A0847080A08E5040A0825080A0814
:1012EC00EB070A0801080A0833080A0817080A0855
:1012FC00E5070A08000000000000000081090A0848
:10130C00D1090A08DF090A08E5040A0895090A0840
:10131C00B7090A08A3090A08CB090A0883090A08AD
:10132C0087090A080000000000000000850A0A086E
:10133C00CF0A0A08A70A0A08870A0A08AF0A0A0885
:10134C00B70A0A08BF0A0A08C70A0A080000000000
:10135C00000000009F0B0A08950B0A088B0B0A086B
:10136C00090B0A0875050A087F0B0A08730B0A0893
:10137C006B0B0A08610B0A08570B0A08130B0A08B7
:10138C000000000000000000BD0B0A08C70B0A0893
:10139C00D10B0A08DB0B0A08E50B0A08F10B0A084B
:1013AC00FD0B0A08090C0A08110C0A081B0C0A0888
:1013BC00250C0A08000000000000000000000000DE
:1013CC000000000000000000000000000000000011
:1013DC000000000000000000000000000000000001
:1013EC0000000000000000000000000000000000F1
:1013FC0000000000000000000000000000000000E1
:10140C0000000000000000000000000000000000D0
:10141C0000000000000000004300000019010A0851
:10142C00B1040A0881050A0891050A08C9050A08C9
:10143C00A90B0A08750C0A08610D0A08550E0A0852
:10144C00D90E0A089D0F0A0861100A080000000056
:04145C00000000008C
:041460000000000088
:101464000600000007000000B1120A080000000096
:10147400C4130A08E4130A0804140A08000000004C
:1014840000000000000000000000000024140A080E
:101494000000000000000000000000000000000048
:1014A4000000000000000000000000000000000038
:1014B4000000000000000000000000000000000028
:1014C4000000000000000000000000000C000020EC
:1014D400FFFFFFFF00000102030405060708090AD5
:1014E4000B0C0D0E0F101112131415161718191AD0
:0814F4001B1C1D1E1F20280017
:0414FC0078563412D8
:04000005080A001CC9
:00000001FF
